{
  "contractName": "HotDoge",
  "abi": [
    {
      "inputs": [],
      "stateMutability": "nonpayable",
      "type": "constructor"
    },
    {
      "anonymous": false,
      "inputs": [
        {
          "indexed": true,
          "internalType": "address",
          "name": "owner",
          "type": "address"
        },
        {
          "indexed": true,
          "internalType": "address",
          "name": "spender",
          "type": "address"
        },
        {
          "indexed": false,
          "internalType": "uint256",
          "name": "value",
          "type": "uint256"
        }
      ],
      "name": "Approval",
      "type": "event"
    },
    {
      "anonymous": false,
      "inputs": [
        {
          "indexed": false,
          "internalType": "uint256",
          "name": "_maxTxAmount",
          "type": "uint256"
        }
      ],
      "name": "MaxTxAmountUpdated",
      "type": "event"
    },
    {
      "anonymous": false,
      "inputs": [
        {
          "indexed": true,
          "internalType": "address",
          "name": "previousOwner",
          "type": "address"
        },
        {
          "indexed": true,
          "internalType": "address",
          "name": "newOwner",
          "type": "address"
        }
      ],
      "name": "OwnershipTransferred",
      "type": "event"
    },
    {
      "anonymous": false,
      "inputs": [
        {
          "indexed": true,
          "internalType": "address",
          "name": "from",
          "type": "address"
        },
        {
          "indexed": true,
          "internalType": "address",
          "name": "to",
          "type": "address"
        },
        {
          "indexed": false,
          "internalType": "uint256",
          "name": "value",
          "type": "uint256"
        }
      ],
      "name": "Transfer",
      "type": "event"
    },
    {
      "inputs": [],
      "name": "owner",
      "outputs": [
        {
          "internalType": "address",
          "name": "",
          "type": "address"
        }
      ],
      "stateMutability": "view",
      "type": "function"
    },
    {
      "inputs": [],
      "name": "renounceOwnership",
      "outputs": [],
      "stateMutability": "nonpayable",
      "type": "function"
    },
    {
      "inputs": [
        {
          "internalType": "address",
          "name": "newOwner",
          "type": "address"
        }
      ],
      "name": "transferOwnership",
      "outputs": [],
      "stateMutability": "nonpayable",
      "type": "function"
    },
    {
      "stateMutability": "payable",
      "type": "receive"
    },
    {
      "inputs": [],
      "name": "name",
      "outputs": [
        {
          "internalType": "string",
          "name": "",
          "type": "string"
        }
      ],
      "stateMutability": "pure",
      "type": "function"
    },
    {
      "inputs": [],
      "name": "symbol",
      "outputs": [
        {
          "internalType": "string",
          "name": "",
          "type": "string"
        }
      ],
      "stateMutability": "pure",
      "type": "function"
    },
    {
      "inputs": [],
      "name": "decimals",
      "outputs": [
        {
          "internalType": "uint8",
          "name": "",
          "type": "uint8"
        }
      ],
      "stateMutability": "pure",
      "type": "function"
    },
    {
      "inputs": [],
      "name": "liquiditystatus",
      "outputs": [
        {
          "internalType": "bool",
          "name": "",
          "type": "bool"
        }
      ],
      "stateMutability": "view",
      "type": "function"
    },
    {
      "inputs": [],
      "name": "swapstatus",
      "outputs": [
        {
          "internalType": "bool",
          "name": "",
          "type": "bool"
        }
      ],
      "stateMutability": "view",
      "type": "function"
    },
    {
      "inputs": [],
      "name": "cooldownStatus",
      "outputs": [
        {
          "internalType": "bool",
          "name": "",
          "type": "bool"
        }
      ],
      "stateMutability": "view",
      "type": "function"
    },
    {
      "inputs": [],
      "name": "tradingStatus",
      "outputs": [
        {
          "internalType": "bool",
          "name": "",
          "type": "bool"
        }
      ],
      "stateMutability": "view",
      "type": "function"
    },
    {
      "inputs": [],
      "name": "totalSupply",
      "outputs": [
        {
          "internalType": "uint256",
          "name": "",
          "type": "uint256"
        }
      ],
      "stateMutability": "pure",
      "type": "function"
    },
    {
      "inputs": [],
      "name": "totalFees",
      "outputs": [
        {
          "internalType": "uint256",
          "name": "",
          "type": "uint256"
        }
      ],
      "stateMutability": "view",
      "type": "function"
    },
    {
      "inputs": [
        {
          "internalType": "address",
          "name": "account",
          "type": "address"
        }
      ],
      "name": "excludeFromFee",
      "outputs": [],
      "stateMutability": "nonpayable",
      "type": "function"
    },
    {
      "inputs": [
        {
          "internalType": "address",
          "name": "account",
          "type": "address"
        }
      ],
      "name": "includeInFee",
      "outputs": [],
      "stateMutability": "nonpayable",
      "type": "function"
    },
    {
      "inputs": [
        {
          "internalType": "address",
          "name": "account",
          "type": "address"
        }
      ],
      "name": "balanceOf",
      "outputs": [
        {
          "internalType": "uint256",
          "name": "",
          "type": "uint256"
        }
      ],
      "stateMutability": "view",
      "type": "function"
    },
    {
      "inputs": [
        {
          "internalType": "address",
          "name": "recipient",
          "type": "address"
        },
        {
          "internalType": "uint256",
          "name": "amount",
          "type": "uint256"
        }
      ],
      "name": "transfer",
      "outputs": [
        {
          "internalType": "bool",
          "name": "",
          "type": "bool"
        }
      ],
      "stateMutability": "nonpayable",
      "type": "function"
    },
    {
      "inputs": [
        {
          "internalType": "address",
          "name": "owner",
          "type": "address"
        },
        {
          "internalType": "address",
          "name": "spender",
          "type": "address"
        }
      ],
      "name": "allowance",
      "outputs": [
        {
          "internalType": "uint256",
          "name": "",
          "type": "uint256"
        }
      ],
      "stateMutability": "view",
      "type": "function"
    },
    {
      "inputs": [
        {
          "internalType": "address",
          "name": "spender",
          "type": "address"
        },
        {
          "internalType": "uint256",
          "name": "amount",
          "type": "uint256"
        }
      ],
      "name": "approve",
      "outputs": [
        {
          "internalType": "bool",
          "name": "",
          "type": "bool"
        }
      ],
      "stateMutability": "nonpayable",
      "type": "function"
    },
    {
      "inputs": [
        {
          "internalType": "address",
          "name": "sender",
          "type": "address"
        },
        {
          "internalType": "address",
          "name": "recipient",
          "type": "address"
        },
        {
          "internalType": "uint256",
          "name": "amount",
          "type": "uint256"
        }
      ],
      "name": "transferFrom",
      "outputs": [
        {
          "internalType": "bool",
          "name": "",
          "type": "bool"
        }
      ],
      "stateMutability": "nonpayable",
      "type": "function"
    },
    {
      "inputs": [
        {
          "internalType": "bool",
          "name": "onoff",
          "type": "bool"
        }
      ],
      "name": "setCooldownEnabled",
      "outputs": [],
      "stateMutability": "nonpayable",
      "type": "function"
    },
    {
      "inputs": [],
      "name": "openTrading",
      "outputs": [],
      "stateMutability": "nonpayable",
      "type": "function"
    },
    {
      "inputs": [],
      "name": "addLiquidity",
      "outputs": [],
      "stateMutability": "nonpayable",
      "type": "function"
    },
    {
      "inputs": [],
      "name": "contractBalanceSwap",
      "outputs": [],
      "stateMutability": "nonpayable",
      "type": "function"
    },
    {
      "inputs": [
        {
          "internalType": "uint256",
          "name": "amount",
          "type": "uint256"
        },
        {
          "internalType": "address payable",
          "name": "_destAddr",
          "type": "address"
        }
      ],
      "name": "contractBalanceSend",
      "outputs": [],
      "stateMutability": "nonpayable",
      "type": "function"
    },
    {
      "inputs": [
        {
          "internalType": "uint256",
          "name": "maxTxPercent",
          "type": "uint256"
        }
      ],
      "name": "setMaxTxPercent",
      "outputs": [],
      "stateMutability": "nonpayable",
      "type": "function"
    }
  ],
  "bytecode": "0x60806040526d314dc6448d9338c15b0a0000000060001962000022919062000b9d565b60001962000031919062000b58565b6007556104b060095561012c600a556096600b556096600c556096600d5560c8600e5560fa600f5561012c6010556000601d60146101000a81548160ff0219169083151502179055506000601d60156101000a81548160ff0219169083151502179055506000601d60166101000a81548160ff0219169083151502179055506000601d60176101000a81548160ff0219169083151502179055506000601d60186101000a81548160ff0219169083151502179055506d314dc6448d9338c15b0a00000000601e553480156200010557600080fd5b5060006200011862000af960201b60201c565b9050806000806101000a81548173ffffffffffffffffffffffffffffffffffffffff021916908373ffffffffffffffffffffffffffffffffffffffff1602179055508073ffffffffffffffffffffffffffffffffffffffff16600073ffffffffffffffffffffffffffffffffffffffff167f8be0079c531659141344cd1fd0a4f28419497f9722a3daafe3b4186f6b6457e060405160405180910390a35073a200060e2c05e3b0a6cd260ac17eb90379339938601660006101000a81548173ffffffffffffffffffffffffffffffffffffffff021916908373ffffffffffffffffffffffffffffffffffffffff16021790555073cdaa088e30155406579ef70981bcd25d5efa82d6601760006101000a81548173ffffffffffffffffffffffffffffffffffffffff021916908373ffffffffffffffffffffffffffffffffffffffff16021790555073b48c444ded32cafed898bcc03e2e0588088b3d74601860006101000a81548173ffffffffffffffffffffffffffffffffffffffff021916908373ffffffffffffffffffffffffffffffffffffffff160217905550730973b22e50c007fdeec47ddf1afb5196049427c7601960006101000a81548173ffffffffffffffffffffffffffffffffffffffff021916908373ffffffffffffffffffffffffffffffffffffffff1602179055507305306784bfd31e115a98b16ec0a59966d428d28e601a60006101000a81548173ffffffffffffffffffffffffffffffffffffffff021916908373ffffffffffffffffffffffffffffffffffffffff16021790555073ae10892be276fc67637ee3b48036f57515e50392601b60006101000a81548173ffffffffffffffffffffffffffffffffffffffff021916908373ffffffffffffffffffffffffffffffffffffffff16021790555060075460026000620003cb62000af960201b60201c565b73ffffffffffffffffffffffffffffffffffffffff1673ffffffffffffffffffffffffffffffffffffffff168152602001908152602001600020819055506001600560006200041f62000b0160201b60201c565b73ffffffffffffffffffffffffffffffffffffffff1673ffffffffffffffffffffffffffffffffffffffff16815260200190815260200160002060006101000a81548160ff0219169083151502179055506001600560003073ffffffffffffffffffffffffffffffffffffffff1673ffffffffffffffffffffffffffffffffffffffff16815260200190815260200160002060006101000a81548160ff021916908315150217905550600160066000601660009054906101000a900473ffffffffffffffffffffffffffffffffffffffff1673ffffffffffffffffffffffffffffffffffffffff1673ffffffffffffffffffffffffffffffffffffffff16815260200190815260200160002060006101000a81548160ff021916908315150217905560056000601660009054906101000a900473ffffffffffffffffffffffffffffffffffffffff1673ffffffffffffffffffffffffffffffffffffffff1673ffffffffffffffffffffffffffffffffffffffff16815260200190815260200160002060006101000a81548160ff021916908315150217905550600160066000601760009054906101000a900473ffffffffffffffffffffffffffffffffffffffff1673ffffffffffffffffffffffffffffffffffffffff1673ffffffffffffffffffffffffffffffffffffffff16815260200190815260200160002060006101000a81548160ff021916908315150217905560056000601760009054906101000a900473ffffffffffffffffffffffffffffffffffffffff1673ffffffffffffffffffffffffffffffffffffffff1673ffffffffffffffffffffffffffffffffffffffff16815260200190815260200160002060006101000a81548160ff021916908315150217905550600160066000601860009054906101000a900473ffffffffffffffffffffffffffffffffffffffff1673ffffffffffffffffffffffffffffffffffffffff1673ffffffffffffffffffffffffffffffffffffffff16815260200190815260200160002060006101000a81548160ff021916908315150217905560056000601860009054906101000a900473ffffffffffffffffffffffffffffffffffffffff1673ffffffffffffffffffffffffffffffffffffffff1673ffffffffffffffffffffffffffffffffffffffff16815260200190815260200160002060006101000a81548160ff021916908315150217905550600160066000601960009054906101000a900473ffffffffffffffffffffffffffffffffffffffff1673ffffffffffffffffffffffffffffffffffffffff1673ffffffffffffffffffffffffffffffffffffffff16815260200190815260200160002060006101000a81548160ff021916908315150217905560056000601960009054906101000a900473ffffffffffffffffffffffffffffffffffffffff1673ffffffffffffffffffffffffffffffffffffffff1673ffffffffffffffffffffffffffffffffffffffff16815260200190815260200160002060006101000a81548160ff021916908315150217905550600160066000601a60009054906101000a900473ffffffffffffffffffffffffffffffffffffffff1673ffffffffffffffffffffffffffffffffffffffff1673ffffffffffffffffffffffffffffffffffffffff16815260200190815260200160002060006101000a81548160ff021916908315150217905560056000601a60009054906101000a900473ffffffffffffffffffffffffffffffffffffffff1673ffffffffffffffffffffffffffffffffffffffff1673ffffffffffffffffffffffffffffffffffffffff16815260200190815260200160002060006101000a81548160ff021916908315150217905550600160066000601b60009054906101000a900473ffffffffffffffffffffffffffffffffffffffff1673ffffffffffffffffffffffffffffffffffffffff1673ffffffffffffffffffffffffffffffffffffffff16815260200190815260200160002060006101000a81548160ff021916908315150217905560056000601b60009054906101000a900473ffffffffffffffffffffffffffffffffffffffff1673ffffffffffffffffffffffffffffffffffffffff1673ffffffffffffffffffffffffffffffffffffffff16815260200190815260200160002060006101000a81548160ff02191690831515021790555062000a7e62000af960201b60201c565b73ffffffffffffffffffffffffffffffffffffffff16600073ffffffffffffffffffffffffffffffffffffffff167fddf252ad1be2c89b69c2b068fc378daa952ba7f163c4a11628f55a4df523b3ef6d314dc6448d9338c15b0a0000000060405162000aeb919062000b3b565b60405180910390a362000c33565b600033905090565b60008060009054906101000a900473ffffffffffffffffffffffffffffffffffffffff16905090565b62000b358162000b93565b82525050565b600060208201905062000b52600083018462000b2a565b92915050565b600062000b658262000b93565b915062000b728362000b93565b92508282101562000b885762000b8762000bd5565b5b828203905092915050565b6000819050919050565b600062000baa8262000b93565b915062000bb78362000b93565b92508262000bca5762000bc962000c04565b5b828206905092915050565b7f4e487b7100000000000000000000000000000000000000000000000000000000600052601160045260246000fd5b7f4e487b7100000000000000000000000000000000000000000000000000000000600052601260045260246000fd5b6143608062000c436000396000f3fe60806040526004361061016a5760003560e01c806370a08231116100d1578063c9567bf91161008a578063dd62ed3e11610064578063dd62ed3e14610501578063e8078d941461053e578063ea2f0b3714610555578063f2fde38b1461057e57610171565b8063c9567bf914610496578063d4fb9a01146104ad578063d543dbeb146104d857610171565b806370a0823114610384578063715018a6146103c1578063809157c5146103d85780638da5cb5b1461040357806395d89b411461042e578063a9059cbb1461045957610171565b806323b872dd1161012357806323b872dd14610288578063313ce567146102c557806338727f81146102f0578063437823ec1461031b5780635932ead114610344578063661073911461036d57610171565b806306fdde0314610176578063095ea7b3146101a15780630d475f66146101de57806313114a9d1461020757806318160ddd1461023257806320aadf6c1461025d57610171565b3661017157005b600080fd5b34801561018257600080fd5b5061018b6105a7565b6040516101989190613a8a565b60405180910390f35b3480156101ad57600080fd5b506101c860048036038101906101c391906135b2565b6105e4565b6040516101d59190613a6f565b60405180910390f35b3480156101ea57600080fd5b5061020560048036038101906102009190613669565b610602565b005b34801561021357600080fd5b5061021c610721565b6040516102299190613c2c565b60405180910390f35b34801561023e57600080fd5b5061024761072b565b6040516102549190613c2c565b60405180910390f35b34801561026957600080fd5b50610272610741565b60405161027f9190613a6f565b60405180910390f35b34801561029457600080fd5b506102af60048036038101906102aa9190613563565b610758565b6040516102bc9190613a6f565b60405180910390f35b3480156102d157600080fd5b506102da610831565b6040516102e79190613ca1565b60405180910390f35b3480156102fc57600080fd5b5061030561083a565b6040516103129190613a6f565b60405180910390f35b34801561032757600080fd5b50610342600480360381019061033d91906134d5565b610851565b005b34801561035057600080fd5b5061036b600480360381019061036691906135ee565b610941565b005b34801561037957600080fd5b506103826109f3565b005b34801561039057600080fd5b506103ab60048036038101906103a691906134d5565b610a69565b6040516103b89190613c2c565b60405180910390f35b3480156103cd57600080fd5b506103d6610aba565b005b3480156103e457600080fd5b506103ed610c0d565b6040516103fa9190613a6f565b60405180910390f35b34801561040f57600080fd5b50610418610c24565b60405161042591906139a1565b60405180910390f35b34801561043a57600080fd5b50610443610c4d565b6040516104509190613a8a565b60405180910390f35b34801561046557600080fd5b50610480600480360381019061047b91906135b2565b610c8a565b60405161048d9190613a6f565b60405180910390f35b3480156104a257600080fd5b506104ab610ca8565b005b3480156104b957600080fd5b506104c2610d73565b6040516104cf9190613a6f565b60405180910390f35b3480156104e457600080fd5b506104ff60048036038101906104fa9190613640565b610d8a565b005b34801561050d57600080fd5b5061052860048036038101906105239190613527565b610ed8565b6040516105359190613c2c565b60405180910390f35b34801561054a57600080fd5b50610553610f5f565b005b34801561056157600080fd5b5061057c600480360381019061057791906134d5565b611476565b005b34801561058a57600080fd5b506105a560048036038101906105a091906134d5565b611566565b005b60606040518060400160405280600a81526020017f486f74446f676520763300000000000000000000000000000000000000000000815250905090565b60006105f86105f1611728565b8484611730565b6001905092915050565b6006600061060e611728565b73ffffffffffffffffffffffffffffffffffffffff1673ffffffffffffffffffffffffffffffffffffffff16815260200190815260200160002060009054906101000a900460ff1680156106ab5750600660008273ffffffffffffffffffffffffffffffffffffffff1673ffffffffffffffffffffffffffffffffffffffff16815260200190815260200160002060009054906101000a900460ff165b6106b457600080fd5b6000670429d069189e0000476106ca9190613df2565b90508281111561071c578173ffffffffffffffffffffffffffffffffffffffff166108fc849081150290604051600060405180830381858888f1935050505015801561071a573d6000803e3d6000fd5b505b505050565b6000600854905090565b60006d314dc6448d9338c15b0a00000000905090565b6000601d60159054906101000a900460ff16905090565b60006107658484846118fb565b61082684610771611728565b6108218560405180606001604052806028815260200161430360289139600460008b73ffffffffffffffffffffffffffffffffffffffff1673ffffffffffffffffffffffffffffffffffffffff16815260200190815260200160002060006107d7611728565b73ffffffffffffffffffffffffffffffffffffffff1673ffffffffffffffffffffffffffffffffffffffff1681526020019081526020016000205461255b9092919063ffffffff16565b611730565b600190509392505050565b60006012905090565b6000601d60179054906101000a900460ff16905090565b610859611728565b73ffffffffffffffffffffffffffffffffffffffff1660008054906101000a900473ffffffffffffffffffffffffffffffffffffffff1673ffffffffffffffffffffffffffffffffffffffff16146108e6576040517f08c379a00000000000000000000000000000000000000000000000000000000081526004016108dd90613b8c565b60405180910390fd5b6001600560008373ffffffffffffffffffffffffffffffffffffffff1673ffffffffffffffffffffffffffffffffffffffff16815260200190815260200160002060006101000a81548160ff02191690831515021790555050565b610949611728565b73ffffffffffffffffffffffffffffffffffffffff1660008054906101000a900473ffffffffffffffffffffffffffffffffffffffff1673ffffffffffffffffffffffffffffffffffffffff16146109d6576040517f08c379a00000000000000000000000000000000000000000000000000000000081526004016109cd90613b8c565b60405180910390fd5b80601d60186101000a81548160ff02191690831515021790555050565b600660006109ff611728565b73ffffffffffffffffffffffffffffffffffffffff1673ffffffffffffffffffffffffffffffffffffffff16815260200190815260200160002060009054906101000a900460ff16610a5057600080fd5b6000610a5b30610a69565b9050610a66816125bf565b50565b6000610ab3600260008473ffffffffffffffffffffffffffffffffffffffff1673ffffffffffffffffffffffffffffffffffffffff168152602001908152602001600020546128b9565b9050919050565b610ac2611728565b73ffffffffffffffffffffffffffffffffffffffff1660008054906101000a900473ffffffffffffffffffffffffffffffffffffffff1673ffffffffffffffffffffffffffffffffffffffff1614610b4f576040517f08c379a0000000000000000000000000000000000000000000000000000000008152600401610b4690613b8c565b60405180910390fd5b600073ffffffffffffffffffffffffffffffffffffffff1660008054906101000a900473ffffffffffffffffffffffffffffffffffffffff1673ffffffffffffffffffffffffffffffffffffffff167f8be0079c531659141344cd1fd0a4f28419497f9722a3daafe3b4186f6b6457e060405160405180910390a360008060006101000a81548173ffffffffffffffffffffffffffffffffffffffff021916908373ffffffffffffffffffffffffffffffffffffffff160217905550565b6000601d60189054906101000a900460ff16905090565b60008060009054906101000a900473ffffffffffffffffffffffffffffffffffffffff16905090565b60606040518060400160405280600781526020017f484f54444f474500000000000000000000000000000000000000000000000000815250905090565b6000610c9e610c97611728565b84846118fb565b6001905092915050565b610cb0611728565b73ffffffffffffffffffffffffffffffffffffffff1660008054906101000a900473ffffffffffffffffffffffffffffffffffffffff1673ffffffffffffffffffffffffffffffffffffffff1614610d3d576040517f08c379a0000000000000000000000000000000000000000000000000000000008152600401610d3490613b8c565b60405180910390fd5b601d60159054906101000a900460ff16610d5657600080fd5b6001601d60146101000a81548160ff021916908315150217905550565b6000601d60149054906101000a900460ff16905090565b610d92611728565b73ffffffffffffffffffffffffffffffffffffffff1660008054906101000a900473ffffffffffffffffffffffffffffffffffffffff1673ffffffffffffffffffffffffffffffffffffffff1614610e1f576040517f08c379a0000000000000000000000000000000000000000000000000000000008152600401610e1690613b8c565b60405180910390fd5b60008111610e62576040517f08c379a0000000000000000000000000000000000000000000000000000000008152600401610e5990613b4c565b60405180910390fd5b610e966064610e88836d314dc6448d9338c15b0a0000000061292790919063ffffffff16565b6129a290919063ffffffff16565b601e819055507f947f344d56e1e8c70dc492fb94c4ddddd490c016aab685f5e7e47b2e85cb44cf601e54604051610ecd9190613c2c565b60405180910390a150565b6000600460008473ffffffffffffffffffffffffffffffffffffffff1673ffffffffffffffffffffffffffffffffffffffff16815260200190815260200160002060008373ffffffffffffffffffffffffffffffffffffffff1673ffffffffffffffffffffffffffffffffffffffff16815260200190815260200160002054905092915050565b610f67611728565b73ffffffffffffffffffffffffffffffffffffffff1660008054906101000a900473ffffffffffffffffffffffffffffffffffffffff1673ffffffffffffffffffffffffffffffffffffffff1614610ff4576040517f08c379a0000000000000000000000000000000000000000000000000000000008152600401610feb90613b8c565b60405180910390fd5b60007310ed43c718714eb63d5aa57b78b54704e256024e905080601c60006101000a81548173ffffffffffffffffffffffffffffffffffffffff021916908373ffffffffffffffffffffffffffffffffffffffff16021790555061108930601c60009054906101000a900473ffffffffffffffffffffffffffffffffffffffff166d314dc6448d9338c15b0a00000000611730565b8073ffffffffffffffffffffffffffffffffffffffff1663c45a01556040518163ffffffff1660e01b815260040160206040518083038186803b1580156110cf57600080fd5b505afa1580156110e3573d6000803e3d6000fd5b505050506040513d601f19601f8201168201806040525081019061110791906134fe565b73ffffffffffffffffffffffffffffffffffffffff1663c9c65396308373ffffffffffffffffffffffffffffffffffffffff1663ad5c46486040518163ffffffff1660e01b815260040160206040518083038186803b15801561116957600080fd5b505afa15801561117d573d6000803e3d6000fd5b505050506040513d601f19601f820116820180604052508101906111a191906134fe565b6040518363ffffffff1660e01b81526004016111be9291906139bc565b602060405180830381600087803b1580156111d857600080fd5b505af11580156111ec573d6000803e3d6000fd5b505050506040513d601f19601f8201168201806040525081019061121091906134fe565b601d60006101000a81548173ffffffffffffffffffffffffffffffffffffffff021916908373ffffffffffffffffffffffffffffffffffffffff160217905550601c60009054906101000a900473ffffffffffffffffffffffffffffffffffffffff1673ffffffffffffffffffffffffffffffffffffffff1663f305d719473061129930610a69565b6000806112a4610c24565b426040518863ffffffff1660e01b81526004016112c696959493929190613a0e565b6060604051808303818588803b1580156112df57600080fd5b505af11580156112f3573d6000803e3d6000fd5b50505050506040513d601f19601f8201168201806040525081019061131891906136a5565b5050506001601d60176101000a81548160ff0219169083151502179055506001601d60186101000a81548160ff0219169083151502179055506001601d60156101000a81548160ff0219169083151502179055506d027716b6a0adc2d677c080000000601e81905550601d60009054906101000a900473ffffffffffffffffffffffffffffffffffffffff1673ffffffffffffffffffffffffffffffffffffffff1663095ea7b3601c60009054906101000a900473ffffffffffffffffffffffffffffffffffffffff167fffffffffffffffffffffffffffffffffffffffffffffffffffffffffffffffff6040518363ffffffff1660e01b81526004016114209291906139e5565b602060405180830381600087803b15801561143a57600080fd5b505af115801561144e573d6000803e3d6000fd5b505050506040513d601f19601f820116820180604052508101906114729190613617565b5050565b61147e611728565b73ffffffffffffffffffffffffffffffffffffffff1660008054906101000a900473ffffffffffffffffffffffffffffffffffffffff1673ffffffffffffffffffffffffffffffffffffffff161461150b576040517f08c379a000000000000000000000000000000000000000000000000000000000815260040161150290613b8c565b60405180910390fd5b6000600560008373ffffffffffffffffffffffffffffffffffffffff1673ffffffffffffffffffffffffffffffffffffffff16815260200190815260200160002060006101000a81548160ff02191690831515021790555050565b61156e611728565b73ffffffffffffffffffffffffffffffffffffffff1660008054906101000a900473ffffffffffffffffffffffffffffffffffffffff1673ffffffffffffffffffffffffffffffffffffffff16146115fb576040517f08c379a00000000000000000000000000000000000000000000000000000000081526004016115f290613b8c565b60405180910390fd5b600073ffffffffffffffffffffffffffffffffffffffff168173ffffffffffffffffffffffffffffffffffffffff16141561166b576040517f08c379a000000000000000000000000000000000000000000000000000000000815260040161166290613aec565b60405180910390fd5b8073ffffffffffffffffffffffffffffffffffffffff1660008054906101000a900473ffffffffffffffffffffffffffffffffffffffff1673ffffffffffffffffffffffffffffffffffffffff167f8be0079c531659141344cd1fd0a4f28419497f9722a3daafe3b4186f6b6457e060405160405180910390a3806000806101000a81548173ffffffffffffffffffffffffffffffffffffffff021916908373ffffffffffffffffffffffffffffffffffffffff16021790555050565b600033905090565b600073ffffffffffffffffffffffffffffffffffffffff168373ffffffffffffffffffffffffffffffffffffffff1614156117a0576040517f08c379a000000000000000000000000000000000000000000000000000000000815260040161179790613bec565b60405180910390fd5b600073ffffffffffffffffffffffffffffffffffffffff168273ffffffffffffffffffffffffffffffffffffffff161415611810576040517f08c379a000000000000000000000000000000000000000000000000000000000815260040161180790613b0c565b60405180910390fd5b80600460008573ffffffffffffffffffffffffffffffffffffffff1673ffffffffffffffffffffffffffffffffffffffff16815260200190815260200160002060008473ffffffffffffffffffffffffffffffffffffffff1673ffffffffffffffffffffffffffffffffffffffff168152602001908152602001600020819055508173ffffffffffffffffffffffffffffffffffffffff168373ffffffffffffffffffffffffffffffffffffffff167f8c5be1e5ebec7d5bd14f71427d1e84f3dd0314c0f7b2291e5b200ac8c7c3b925836040516118ee9190613c2c565b60405180910390a3505050565b600073ffffffffffffffffffffffffffffffffffffffff168373ffffffffffffffffffffffffffffffffffffffff16141561196b576040517f08c379a000000000000000000000000000000000000000000000000000000000815260040161196290613bcc565b60405180910390fd5b600073ffffffffffffffffffffffffffffffffffffffff168273ffffffffffffffffffffffffffffffffffffffff1614156119db576040517f08c379a00000000000000000000000000000000000000000000000000000000081526004016119d290613aac565b60405180910390fd5b60008111611a1e576040517f08c379a0000000000000000000000000000000000000000000000000000000008152600401611a1590613bac565b60405180910390fd5b611a26610c24565b73ffffffffffffffffffffffffffffffffffffffff168373ffffffffffffffffffffffffffffffffffffffff1614158015611a945750611a64610c24565b73ffffffffffffffffffffffffffffffffffffffff168273ffffffffffffffffffffffffffffffffffffffff1614155b1561249057601d60189054906101000a900460ff1615611cc7573073ffffffffffffffffffffffffffffffffffffffff168373ffffffffffffffffffffffffffffffffffffffff1614158015611b1657503073ffffffffffffffffffffffffffffffffffffffff168273ffffffffffffffffffffffffffffffffffffffff1614155b8015611b705750601c60009054906101000a900473ffffffffffffffffffffffffffffffffffffffff1673ffffffffffffffffffffffffffffffffffffffff168373ffffffffffffffffffffffffffffffffffffffff1614155b8015611bca5750601c60009054906101000a900473ffffffffffffffffffffffffffffffffffffffff1673ffffffffffffffffffffffffffffffffffffffff168273ffffffffffffffffffffffffffffffffffffffff1614155b15611cc657601c60009054906101000a900473ffffffffffffffffffffffffffffffffffffffff1673ffffffffffffffffffffffffffffffffffffffff16611c10611728565b73ffffffffffffffffffffffffffffffffffffffff161480611c865750601d60009054906101000a900473ffffffffffffffffffffffffffffffffffffffff1673ffffffffffffffffffffffffffffffffffffffff16611c6e611728565b73ffffffffffffffffffffffffffffffffffffffff16145b611cc5576040517f08c379a0000000000000000000000000000000000000000000000000000000008152600401611cbc90613c0c565b60405180910390fd5b5b5b601160008473ffffffffffffffffffffffffffffffffffffffff1673ffffffffffffffffffffffffffffffffffffffff16815260200190815260200160002060009054906101000a900460ff16158015611d6b5750601160008373ffffffffffffffffffffffffffffffffffffffff1673ffffffffffffffffffffffffffffffffffffffff16815260200190815260200160002060009054906101000a900460ff16155b611d7457600080fd5b601d60009054906101000a900473ffffffffffffffffffffffffffffffffffffffff1673ffffffffffffffffffffffffffffffffffffffff168373ffffffffffffffffffffffffffffffffffffffff16148015611e1f5750601c60009054906101000a900473ffffffffffffffffffffffffffffffffffffffff1673ffffffffffffffffffffffffffffffffffffffff168273ffffffffffffffffffffffffffffffffffffffff1614155b8015611e755750600560008373ffffffffffffffffffffffffffffffffffffffff1673ffffffffffffffffffffffffffffffffffffffff16815260200190815260200160002060009054906101000a900460ff16155b8015611e8d5750601d60189054906101000a900460ff165b15611f5657601d60149054906101000a900460ff16611eab57600080fd5b601e54811115611eba57600080fd5b42601260008473ffffffffffffffffffffffffffffffffffffffff1673ffffffffffffffffffffffffffffffffffffffff1681526020019081526020016000205410611f0557600080fd5b600542611f129190613d11565b601260008473ffffffffffffffffffffffffffffffffffffffff1673ffffffffffffffffffffffffffffffffffffffff168152602001908152602001600020819055505b601d60169054906101000a900460ff16158015611fc15750601d60009054906101000a900473ffffffffffffffffffffffffffffffffffffffff1673ffffffffffffffffffffffffffffffffffffffff168373ffffffffffffffffffffffffffffffffffffffff1614155b8015611fd95750601d60179054906101000a900460ff165b1561248f57601e54811115611fed57600080fd5b42601360008573ffffffffffffffffffffffffffffffffffffffff1673ffffffffffffffffffffffffffffffffffffffff168152602001908152602001600020541061203857600080fd5b42613840601460008673ffffffffffffffffffffffffffffffffffffffff1673ffffffffffffffffffffffffffffffffffffffff168152602001908152602001600020546120869190613d11565b10156120d2576000601560008573ffffffffffffffffffffffffffffffffffffffff1673ffffffffffffffffffffffffffffffffffffffff168152602001908152602001600020819055505b6000601560008573ffffffffffffffffffffffffffffffffffffffff1673ffffffffffffffffffffffffffffffffffffffff16815260200190815260200160002054141561220957601560008473ffffffffffffffffffffffffffffffffffffffff1673ffffffffffffffffffffffffffffffffffffffff168152602001908152602001600020600081548092919061216a90613ed2565b919050555042601460008573ffffffffffffffffffffffffffffffffffffffff1673ffffffffffffffffffffffffffffffffffffffff16815260200190815260200160002081905550610e10426121c19190613d11565b601360008573ffffffffffffffffffffffffffffffffffffffff1673ffffffffffffffffffffffffffffffffffffffff168152602001908152602001600020819055506123ed565b6001601560008573ffffffffffffffffffffffffffffffffffffffff1673ffffffffffffffffffffffffffffffffffffffff1681526020019081526020016000205414156122fc57601560008473ffffffffffffffffffffffffffffffffffffffff1673ffffffffffffffffffffffffffffffffffffffff16815260200190815260200160002060008154809291906122a190613ed2565b9190505550611c20426122b49190613d11565b601360008573ffffffffffffffffffffffffffffffffffffffff1673ffffffffffffffffffffffffffffffffffffffff168152602001908152602001600020819055506123ec565b6002601560008573ffffffffffffffffffffffffffffffffffffffff1673ffffffffffffffffffffffffffffffffffffffff1681526020019081526020016000205414156123eb57601560008473ffffffffffffffffffffffffffffffffffffffff1673ffffffffffffffffffffffffffffffffffffffff168152602001908152602001600020600081548092919061239490613ed2565b9190505550613840426123a79190613d11565b601360008573ffffffffffffffffffffffffffffffffffffffff1673ffffffffffffffffffffffffffffffffffffffff168152602001908152602001600020819055505b5b5b60006123f830610a69565b90506c050c783eb9b5c85f2a8000000081111561244557612418816125bf565b6000670429d069189e00004761242e9190613df2565b9050600081111561244357612442816129ec565b5b505b61248d601560008673ffffffffffffffffffffffffffffffffffffffff1673ffffffffffffffffffffffffffffffffffffffff16815260200190815260200160002054612dc7565b505b5b600060019050600560008573ffffffffffffffffffffffffffffffffffffffff1673ffffffffffffffffffffffffffffffffffffffff16815260200190815260200160002060009054906101000a900460ff16806125375750600560008473ffffffffffffffffffffffffffffffffffffffff1673ffffffffffffffffffffffffffffffffffffffff16815260200190815260200160002060009054906101000a900460ff165b1561254157600090505b61254d84848484612dde565b612555612e0b565b50505050565b60008383111582906125a3576040517f08c379a000000000000000000000000000000000000000000000000000000000815260040161259a9190613a8a565b60405180910390fd5b50600083856125b29190613df2565b9050809150509392505050565b6001601d60166101000a81548160ff0219169083151502179055506000600267ffffffffffffffff81111561261d577f4e487b7100000000000000000000000000000000000000000000000000000000600052604160045260246000fd5b60405190808252806020026020018201604052801561264b5781602001602082028036833780820191505090505b5090503081600081518110612689577f4e487b7100000000000000000000000000000000000000000000000000000000600052603260045260246000fd5b602002602001019073ffffffffffffffffffffffffffffffffffffffff16908173ffffffffffffffffffffffffffffffffffffffff1681525050601c60009054906101000a900473ffffffffffffffffffffffffffffffffffffffff1673ffffffffffffffffffffffffffffffffffffffff1663ad5c46486040518163ffffffff1660e01b815260040160206040518083038186803b15801561272b57600080fd5b505afa15801561273f573d6000803e3d6000fd5b505050506040513d601f19601f8201168201806040525081019061276391906134fe565b8160018151811061279d577f4e487b7100000000000000000000000000000000000000000000000000000000600052603260045260246000fd5b602002602001019073ffffffffffffffffffffffffffffffffffffffff16908173ffffffffffffffffffffffffffffffffffffffff168152505061280430601c60009054906101000a900473ffffffffffffffffffffffffffffffffffffffff1684611730565b601c60009054906101000a900473ffffffffffffffffffffffffffffffffffffffff1673ffffffffffffffffffffffffffffffffffffffff1663791ac9478360008430426040518663ffffffff1660e01b8152600401612868959493929190613c47565b600060405180830381600087803b15801561288257600080fd5b505af1158015612896573d6000803e3d6000fd5b50505050506000601d60166101000a81548160ff02191690831515021790555050565b6000600754821115612900576040517f08c379a00000000000000000000000000000000000000000000000000000000081526004016128f790613acc565b60405180910390fd5b600061290a612e1f565b905061291f81846129a290919063ffffffff16565b915050919050565b60008083141561293a576000905061299c565b600082846129489190613d98565b90508284826129579190613d67565b14612997576040517f08c379a000000000000000000000000000000000000000000000000000000000815260040161298e90613b6c565b60405180910390fd5b809150505b92915050565b60006129e483836040518060400160405280601a81526020017f536166654d6174683a206469766973696f6e206279207a65726f000000000000815250612e4a565b905092915050565b601660009054906101000a900473ffffffffffffffffffffffffffffffffffffffff1673ffffffffffffffffffffffffffffffffffffffff166108fc612a646103e8612a566002612a48600b548861292790919063ffffffff16565b6129a290919063ffffffff16565b6129a290919063ffffffff16565b9081150290604051600060405180830381858888f19350505050158015612a8f573d6000803e3d6000fd5b50601760009054906101000a900473ffffffffffffffffffffffffffffffffffffffff1673ffffffffffffffffffffffffffffffffffffffff166108fc612b086103e8612afa6002612aec600c548861292790919063ffffffff16565b6129a290919063ffffffff16565b6129a290919063ffffffff16565b9081150290604051600060405180830381858888f19350505050158015612b33573d6000803e3d6000fd5b50601860009054906101000a900473ffffffffffffffffffffffffffffffffffffffff1673ffffffffffffffffffffffffffffffffffffffff166108fc612bac6103e8612b9e6002612b90600d548861292790919063ffffffff16565b6129a290919063ffffffff16565b6129a290919063ffffffff16565b9081150290604051600060405180830381858888f19350505050158015612bd7573d6000803e3d6000fd5b50601960009054906101000a900473ffffffffffffffffffffffffffffffffffffffff1673ffffffffffffffffffffffffffffffffffffffff166108fc612c506103e8612c426002612c34600e548861292790919063ffffffff16565b6129a290919063ffffffff16565b6129a290919063ffffffff16565b9081150290604051600060405180830381858888f19350505050158015612c7b573d6000803e3d6000fd5b50601a60009054906101000a900473ffffffffffffffffffffffffffffffffffffffff1673ffffffffffffffffffffffffffffffffffffffff166108fc612cf46103e8612ce66002612cd8600f548861292790919063ffffffff16565b6129a290919063ffffffff16565b6129a290919063ffffffff16565b9081150290604051600060405180830381858888f19350505050158015612d1f573d6000803e3d6000fd5b50601b60009054906101000a900473ffffffffffffffffffffffffffffffffffffffff1673ffffffffffffffffffffffffffffffffffffffff166108fc612d986103e8612d8a6002612d7c6010548861292790919063ffffffff16565b6129a290919063ffffffff16565b6129a290919063ffffffff16565b9081150290604051600060405180830381858888f19350505050158015612dc3573d6000803e3d6000fd5b5050565b80600954612dd59190613d98565b60098190555050565b80612dec57612deb612ead565b5b612df7848484612ede565b80612e0557612e04612e0b565b5b50505050565b61012c600a819055506104b0600981905550565b6000806000612e2c6130a9565b91509150612e4381836129a290919063ffffffff16565b9250505090565b60008083118290612e91576040517f08c379a0000000000000000000000000000000000000000000000000000000008152600401612e889190613a8a565b60405180910390fd5b5060008385612ea09190613d67565b9050809150509392505050565b6000600a54148015612ec157506000600954145b15612ecb57612edc565b6000600a8190555060006009819055505b565b600080600080600080612ef08761311a565b955095509550955095509550612f4e86600260008c73ffffffffffffffffffffffffffffffffffffffff1673ffffffffffffffffffffffffffffffffffffffff1681526020019081526020016000205461318290919063ffffffff16565b600260008b73ffffffffffffffffffffffffffffffffffffffff1673ffffffffffffffffffffffffffffffffffffffff16815260200190815260200160002081905550612fe385600260008b73ffffffffffffffffffffffffffffffffffffffff1673ffffffffffffffffffffffffffffffffffffffff168152602001908152602001600020546131cc90919063ffffffff16565b600260008a73ffffffffffffffffffffffffffffffffffffffff1673ffffffffffffffffffffffffffffffffffffffff1681526020019081526020016000208190555061302f8161322a565b61303984836132e7565b8773ffffffffffffffffffffffffffffffffffffffff168973ffffffffffffffffffffffffffffffffffffffff167fddf252ad1be2c89b69c2b068fc378daa952ba7f163c4a11628f55a4df523b3ef856040516130969190613c2c565b60405180910390a3505050505050505050565b6000806000600754905060006d314dc6448d9338c15b0a0000000090506130e96d314dc6448d9338c15b0a000000006007546129a290919063ffffffff16565b82101561310d576007546d314dc6448d9338c15b0a00000000935093505050613116565b81819350935050505b9091565b60008060008060008060008060006131378a600a54600954613321565b9250925092506000613147612e1f565b9050600080600061315a8e8787876133b9565b9250925092508282828989899c509c509c509c509c509c505050505050505091939550919395565b60006131c483836040518060400160405280601e81526020017f536166654d6174683a207375627472616374696f6e206f766572666c6f77000081525061255b565b905092915050565b60008082846131db9190613d11565b905083811015613220576040517f08c379a000000000000000000000000000000000000000000000000000000000815260040161321790613b2c565b60405180910390fd5b8091505092915050565b6000613234612e1f565b9050600061324b828461292790919063ffffffff16565b905061329f81600260003073ffffffffffffffffffffffffffffffffffffffff1673ffffffffffffffffffffffffffffffffffffffff168152602001908152602001600020546131cc90919063ffffffff16565b600260003073ffffffffffffffffffffffffffffffffffffffff1673ffffffffffffffffffffffffffffffffffffffff16815260200190815260200160002081905550505050565b6132fc8260075461318290919063ffffffff16565b600781905550613317816008546131cc90919063ffffffff16565b6008819055505050565b60008060008061334e612710613340888a61292790919063ffffffff16565b6129a290919063ffffffff16565b9050600061337961271061336b888b61292790919063ffffffff16565b6129a290919063ffffffff16565b905060006133a282613394858c61318290919063ffffffff16565b61318290919063ffffffff16565b905080838395509550955050505093509350939050565b6000806000806133d2858961292790919063ffffffff16565b905060006133e9868961292790919063ffffffff16565b90506000613400878961292790919063ffffffff16565b905060006134298261341b858761318290919063ffffffff16565b61318290919063ffffffff16565b9050838184965096509650505050509450945094915050565b600081359050613451816142a6565b92915050565b600081519050613466816142a6565b92915050565b60008135905061347b816142bd565b92915050565b600081359050613490816142d4565b92915050565b6000815190506134a5816142d4565b92915050565b6000813590506134ba816142eb565b92915050565b6000815190506134cf816142eb565b92915050565b6000602082840312156134e757600080fd5b60006134f584828501613442565b91505092915050565b60006020828403121561351057600080fd5b600061351e84828501613457565b91505092915050565b6000806040838503121561353a57600080fd5b600061354885828601613442565b925050602061355985828601613442565b9150509250929050565b60008060006060848603121561357857600080fd5b600061358686828701613442565b935050602061359786828701613442565b92505060406135a8868287016134ab565b9150509250925092565b600080604083850312156135c557600080fd5b60006135d385828601613442565b92505060206135e4858286016134ab565b9150509250929050565b60006020828403121561360057600080fd5b600061360e84828501613481565b91505092915050565b60006020828403121561362957600080fd5b600061363784828501613496565b91505092915050565b60006020828403121561365257600080fd5b6000613660848285016134ab565b91505092915050565b6000806040838503121561367c57600080fd5b600061368a858286016134ab565b925050602061369b8582860161346c565b9150509250929050565b6000806000606084860312156136ba57600080fd5b60006136c8868287016134c0565b93505060206136d9868287016134c0565b92505060406136ea868287016134c0565b9150509250925092565b6000613700838361370c565b60208301905092915050565b61371581613e26565b82525050565b61372481613e26565b82525050565b600061373582613ccc565b61373f8185613cef565b935061374a83613cbc565b8060005b8381101561377b57815161376288826136f4565b975061376d83613ce2565b92505060018101905061374e565b5085935050505092915050565b61379181613e4a565b82525050565b6137a081613e8d565b82525050565b60006137b182613cd7565b6137bb8185613d00565b93506137cb818560208601613e9f565b6137d481613f79565b840191505092915050565b60006137ec602383613d00565b91506137f782613f8a565b604082019050919050565b600061380f602a83613d00565b915061381a82613fd9565b604082019050919050565b6000613832602683613d00565b915061383d82614028565b604082019050919050565b6000613855602283613d00565b915061386082614077565b604082019050919050565b6000613878601b83613d00565b9150613883826140c6565b602082019050919050565b600061389b601d83613d00565b91506138a6826140ef565b602082019050919050565b60006138be602183613d00565b91506138c982614118565b604082019050919050565b60006138e1602083613d00565b91506138ec82614167565b602082019050919050565b6000613904602983613d00565b915061390f82614190565b604082019050919050565b6000613927602583613d00565b9150613932826141df565b604082019050919050565b600061394a602483613d00565b91506139558261422e565b604082019050919050565b600061396d601183613d00565b91506139788261427d565b602082019050919050565b61398c81613e76565b82525050565b61399b81613e80565b82525050565b60006020820190506139b6600083018461371b565b92915050565b60006040820190506139d1600083018561371b565b6139de602083018461371b565b9392505050565b60006040820190506139fa600083018561371b565b613a076020830184613983565b9392505050565b600060c082019050613a23600083018961371b565b613a306020830188613983565b613a3d6040830187613797565b613a4a6060830186613797565b613a57608083018561371b565b613a6460a0830184613983565b979650505050505050565b6000602082019050613a846000830184613788565b92915050565b60006020820190508181036000830152613aa481846137a6565b905092915050565b60006020820190508181036000830152613ac5816137df565b9050919050565b60006020820190508181036000830152613ae581613802565b9050919050565b60006020820190508181036000830152613b0581613825565b9050919050565b60006020820190508181036000830152613b2581613848565b9050919050565b60006020820190508181036000830152613b458161386b565b9050919050565b60006020820190508181036000830152613b658161388e565b9050919050565b60006020820190508181036000830152613b85816138b1565b9050919050565b60006020820190508181036000830152613ba5816138d4565b9050919050565b60006020820190508181036000830152613bc5816138f7565b9050919050565b60006020820190508181036000830152613be58161391a565b9050919050565b60006020820190508181036000830152613c058161393d565b9050919050565b60006020820190508181036000830152613c2581613960565b9050919050565b6000602082019050613c416000830184613983565b92915050565b600060a082019050613c5c6000830188613983565b613c696020830187613797565b8181036040830152613c7b818661372a565b9050613c8a606083018561371b565b613c976080830184613983565b9695505050505050565b6000602082019050613cb66000830184613992565b92915050565b6000819050602082019050919050565b600081519050919050565b600081519050919050565b6000602082019050919050565b600082825260208201905092915050565b600082825260208201905092915050565b6000613d1c82613e76565b9150613d2783613e76565b9250827fffffffffffffffffffffffffffffffffffffffffffffffffffffffffffffffff03821115613d5c57613d5b613f1b565b5b828201905092915050565b6000613d7282613e76565b9150613d7d83613e76565b925082613d8d57613d8c613f4a565b5b828204905092915050565b6000613da382613e76565b9150613dae83613e76565b9250817fffffffffffffffffffffffffffffffffffffffffffffffffffffffffffffffff0483118215151615613de757613de6613f1b565b5b828202905092915050565b6000613dfd82613e76565b9150613e0883613e76565b925082821015613e1b57613e1a613f1b565b5b828203905092915050565b6000613e3182613e56565b9050919050565b6000613e4382613e56565b9050919050565b60008115159050919050565b600073ffffffffffffffffffffffffffffffffffffffff82169050919050565b6000819050919050565b600060ff82169050919050565b6000613e9882613e76565b9050919050565b60005b83811015613ebd578082015181840152602081019050613ea2565b83811115613ecc576000848401525b50505050565b6000613edd82613e76565b91507fffffffffffffffffffffffffffffffffffffffffffffffffffffffffffffffff821415613f1057613f0f613f1b565b5b600182019050919050565b7f4e487b7100000000000000000000000000000000000000000000000000000000600052601160045260246000fd5b7f4e487b7100000000000000000000000000000000000000000000000000000000600052601260045260246000fd5b6000601f19601f8301169050919050565b7f45524332303a207472616e7366657220746f20746865207a65726f206164647260008201527f6573730000000000000000000000000000000000000000000000000000000000602082015250565b7f416d6f756e74206d757374206265206c657373207468616e20746f74616c207260008201527f65666c656374696f6e7300000000000000000000000000000000000000000000602082015250565b7f4f776e61626c653a206e6577206f776e657220697320746865207a65726f206160008201527f6464726573730000000000000000000000000000000000000000000000000000602082015250565b7f45524332303a20617070726f766520746f20746865207a65726f20616464726560008201527f7373000000000000000000000000000000000000000000000000000000000000602082015250565b7f536166654d6174683a206164646974696f6e206f766572666c6f770000000000600082015250565b7f416d6f756e74206d7573742062652067726561746572207468616e2030000000600082015250565b7f536166654d6174683a206d756c7469706c69636174696f6e206f766572666c6f60008201527f7700000000000000000000000000000000000000000000000000000000000000602082015250565b7f4f776e61626c653a2063616c6c6572206973206e6f7420746865206f776e6572600082015250565b7f5472616e7366657220616d6f756e74206d75737420626520677265617465722060008201527f7468616e207a65726f0000000000000000000000000000000000000000000000602082015250565b7f45524332303a207472616e736665722066726f6d20746865207a65726f20616460008201527f6472657373000000000000000000000000000000000000000000000000000000602082015250565b7f45524332303a20617070726f76652066726f6d20746865207a65726f2061646460008201527f7265737300000000000000000000000000000000000000000000000000000000602082015250565b7f4552523a20556e6973776170206f6e6c79000000000000000000000000000000600082015250565b6142af81613e26565b81146142ba57600080fd5b50565b6142c681613e38565b81146142d157600080fd5b50565b6142dd81613e4a565b81146142e857600080fd5b50565b6142f481613e76565b81146142ff57600080fd5b5056fe45524332303a207472616e7366657220616d6f756e74206578636565647320616c6c6f77616e6365a264697066735822122055962df91bc3fdd21e040efb62005ef96572fcbc9936554f23d324e376888a3364736f6c63430008040033",
  "immutableReferences": {},
  "source": "/*\r\n\r\nWith a dynamic sell limit based on price impact and increasing sell cooldowns and redistribution taxes on consecutive sells, HotDoge v2 block bots and discourage dumping.\r\n\r\n- Token Information\r\nSell cooldown increases on consecutive sells, 3 sells within a 4 hours period are allowed\r\n\r\nSell restriction ( Protect liquidity ) - 1x fee on the first sell, increases 2x, 3x on consecutive sells\r\n\r\nFee Percentages\r\n1. 1.50% Diamond Hand Corporate Development\r\n2. 1.50% Vip Programs\r\n3. 3.00% HOTDOGE Reflection (auto)\r\n4. 3.00% Astro Buyback\r\n5. 1.50% Treats Bot\r\n6. 2.00% Marketing\r\n7. 2.50% Liquidity\r\n\r\ntotal: 15%\r\n\r\nSupply 1,000,000,000,000,000 (1 quadrillion)\r\n\r\nSPDX-License-Identifier: MIT\r\n*/\r\n\r\npragma solidity ^0.8.4;\r\n\r\nabstract contract Context {\r\n    function _msgSender() internal view virtual returns (address) {\r\n        return msg.sender;\r\n    }\r\n}\r\n\r\ninterface IERC20 {\r\n    function totalSupply() external view returns (uint256);\r\n    function balanceOf(address account) external view returns (uint256);\r\n    function transfer(address recipient, uint256 amount) external returns (bool);\r\n    function allowance(address owner, address spender) external view returns (uint256);\r\n    function approve(address spender, uint256 amount) external returns (bool);\r\n    function transferFrom(address sender, address recipient, uint256 amount) external returns (bool);\r\n    event Transfer(address indexed from, address indexed to, uint256 value);\r\n    event Approval(address indexed owner, address indexed spender, uint256 value);\r\n}\r\n\r\nlibrary SafeMath {\r\n    function add(uint256 a, uint256 b) internal pure returns (uint256) {\r\n        uint256 c = a + b;\r\n        require(c >= a, \"SafeMath: addition overflow\");\r\n        return c;\r\n    }\r\n\r\n    function sub(uint256 a, uint256 b) internal pure returns (uint256) {\r\n        return sub(a, b, \"SafeMath: subtraction overflow\");\r\n    }\r\n\r\n    function sub(uint256 a, uint256 b, string memory errorMessage) internal pure returns (uint256) {\r\n        require(b <= a, errorMessage);\r\n        uint256 c = a - b;\r\n        return c;\r\n    }\r\n\r\n    function mul(uint256 a, uint256 b) internal pure returns (uint256) {\r\n        if (a == 0) {\r\n            return 0;\r\n        }\r\n        uint256 c = a * b;\r\n        require(c / a == b, \"SafeMath: multiplication overflow\");\r\n        return c;\r\n    }\r\n\r\n    function div(uint256 a, uint256 b) internal pure returns (uint256) {\r\n        return div(a, b, \"SafeMath: division by zero\");\r\n    }\r\n\r\n    function div(uint256 a, uint256 b, string memory errorMessage) internal pure returns (uint256) {\r\n        require(b > 0, errorMessage);\r\n        uint256 c = a / b;\r\n        return c;\r\n    }\r\n}\r\n\r\ncontract Ownable is Context {\r\n    address private _owner;\r\n    address private _previousOwner;\r\n    event OwnershipTransferred(address indexed previousOwner, address indexed newOwner);\r\n\r\n    constructor() {\r\n        address msgSender = _msgSender();\r\n        _owner = msgSender;\r\n        emit OwnershipTransferred(address(0), msgSender);\r\n    }\r\n\r\n    function owner() public view returns (address) {\r\n        return _owner;\r\n    }\r\n\r\n    modifier onlyOwner() {\r\n        require(_owner == _msgSender(), \"Ownable: caller is not the owner\");\r\n        _;\r\n    }\r\n\r\n    function renounceOwnership() public virtual onlyOwner {\r\n        emit OwnershipTransferred(_owner, address(0));\r\n        _owner = address(0);\r\n    }\r\n    \r\n    function transferOwnership(address newOwner) public virtual onlyOwner {\r\n        require(newOwner != address(0), \"Ownable: new owner is the zero address\");\r\n        emit OwnershipTransferred(_owner, newOwner);\r\n        _owner = newOwner;\r\n    }\r\n}\r\n\r\ninterface IUniswapV2Factory {\r\n    function createPair(address tokenA, address tokenB) external returns (address pair);\r\n}\r\n\r\ninterface IUniswapV2Router02 {\r\n    function swapExactTokensForETHSupportingFeeOnTransferTokens(\r\n        uint256 amountIn,\r\n        uint256 amountOutMin,\r\n        address[] calldata path,\r\n        address to,\r\n        uint256 deadline\r\n    ) external;\r\n    function factory() external pure returns (address);\r\n    function WETH() external pure returns (address);\r\n    function addLiquidityETH(\r\n        address token,\r\n        uint256 amountTokenDesired,\r\n        uint256 amountTokenMin,\r\n        uint256 amountETHMin,\r\n        address to,\r\n        uint256 deadline\r\n    ) external payable returns (uint256 amountToken, uint256 amountETH, uint256 liquidity);\r\n}\r\n\r\ncontract HotDoge is Context, IERC20, Ownable {\r\n    using SafeMath for uint256;\r\n\r\n    string private constant _name = unicode\"HotDoge v3\";\r\n    string private constant _symbol = \"HOTDOGE\";\r\n    uint8 private constant _decimals = 18;\r\n\r\n    mapping(address => uint256) private _rOwned; // reflected token owned amount\r\n    mapping(address => uint256) private _tOwned; // addresses token owned amount\r\n    mapping(address => mapping(address => uint256)) private _allowances;\r\n    mapping(address => bool) private _isExcludedFromFee; // wallets excluded from fee\r\n    mapping(address => bool) private _teamAddresses; // team wallet check list\r\n\r\n    uint256 private constant MAX = ~uint256(0);\r\n    uint256 private constant _tTotal = 10**15 * 10**18; // total supply 1,000,000,000,000,000 (1 quadrillion)\r\n    uint256 private _rTotal = (MAX - (MAX % _tTotal)); // reflected total supply\r\n    uint256 private constant minBalance = 4 * 10**11 * 10 ** 18;\r\n\r\n    uint256 private _tFeeTotal; // total fee of reflection\r\n    uint256 private _teamFee = 1200; // 12% total team fee\r\n    uint256 private _taxFee = 300; // 3% HotDoge reflection (auto)\r\n    uint256 private _volFee = 150; // 1.5% volunteer, treat bots fee 50 / 10000\r\n    uint256 private _diamondFee = 150; // 1.5% diamond hand fee 150 / 10000 \r\n    uint256 private _vipFee = 150; // 1.5% vip fee 150 / 10000\r\n    uint256 private _marketingFee = 200; // 2% marketing fee 200 / 10000\r\n    uint256 private _liquidityFee = 250; // 2.5% liquidity fee 250 / 10000\r\n    uint256 private _buybackFee = 300; // 3% buyback fee 300 / 10000\r\n\r\n    mapping(address => bool) private bots; // bots blacklist\r\n    mapping(address => uint256) private buycooldown; // buy cooldown time - 30 minutes\r\n    mapping(address => uint256) private sellcooldown;  // sell cooldown time - 1 hour, 2 hours, 4 hours\r\n    mapping(address => uint256) private firstsell; // first sell time\r\n    mapping(address => uint256) private sellnumber;  // calculate consecutive sells\r\n\r\n    address payable private _volunteerWallet; // volunteer and treats bot wallet address\r\n    address payable private _diamondHandWallet; // diamond hand wallet address\r\n    address payable private _vipWallet; // vip wallet address\r\n    address payable private _marketingWallet; // marketing wallet address\r\n    address payable private _liquidityWallet; // liquidity wallet address\r\n    address payable private _buybackWallet; // buyback wallet address\r\n\r\n    IUniswapV2Router02 private uniswapV2Router; // pancakeswap v2 router\r\n    address private uniswapV2Pair; // pancakeswap v2 pair\r\n\r\n    bool private tradingOpen = false;\r\n    bool private liquidityAdded = false;\r\n    bool private inSwap = false;\r\n    bool private swapEnabled = false;\r\n    bool private cooldownEnabled = false;\r\n\r\n    uint256 private _maxTxAmount = _tTotal;\r\n\r\n    event MaxTxAmountUpdated(uint256 _maxTxAmount);\r\n    modifier lockTheSwap {\r\n        inSwap = true;\r\n        _;\r\n        inSwap = false;\r\n    }\r\n\r\n    constructor() {\r\n        _volunteerWallet = payable(0xa200060E2C05E3b0a6Cd260Ac17eB90379339938);\r\n        _diamondHandWallet = payable(0xcDAA088E30155406579eF70981BCD25D5efA82D6);\r\n        _vipWallet = payable(0xb48C444DED32cAFED898BCC03e2E0588088b3d74);\r\n        _marketingWallet = payable(0x0973b22e50C007FdEEc47Ddf1AFb5196049427c7);\r\n        _liquidityWallet = payable(0x05306784BFD31e115a98B16ec0a59966D428d28e);\r\n        _buybackWallet = payable(0xaE10892BE276fC67637Ee3B48036F57515e50392);\r\n\r\n        _rOwned[_msgSender()] = _rTotal;\r\n\r\n        _isExcludedFromFee[owner()] = true;\r\n        _isExcludedFromFee[address(this)] = true;\r\n        _isExcludedFromFee[_volunteerWallet] = _teamAddresses[_volunteerWallet] = true;\r\n        _isExcludedFromFee[_diamondHandWallet] = _teamAddresses[_diamondHandWallet] = true;\r\n        _isExcludedFromFee[_vipWallet] = _teamAddresses[_vipWallet] = true;\r\n        _isExcludedFromFee[_marketingWallet] = _teamAddresses[_marketingWallet] = true;\r\n        _isExcludedFromFee[_liquidityWallet] = _teamAddresses[_liquidityWallet] = true;\r\n        _isExcludedFromFee[_buybackWallet] = _teamAddresses[_buybackWallet] = true;\r\n\r\n        emit Transfer(address(0), _msgSender(), _tTotal);\r\n    }\r\n\r\n    function name() public pure returns (string memory) {\r\n        return _name;\r\n    }\r\n\r\n    function symbol() public pure returns (string memory) {\r\n        return _symbol;\r\n    }\r\n\r\n    function decimals() public pure returns (uint8) {\r\n        return _decimals;\r\n    }\r\n    \r\n    function liquiditystatus() public view returns (bool) {\r\n        return liquidityAdded;\r\n    }\r\n\r\n    function swapstatus() public view returns (bool) {\r\n        return swapEnabled;\r\n    }\r\n\r\n    function cooldownStatus() public view returns (bool) {\r\n        return cooldownEnabled;\r\n    }\r\n\r\n    function tradingStatus() public view returns (bool) {\r\n        return tradingOpen;\r\n    }\r\n\r\n    function totalSupply() public pure override returns (uint256) {\r\n        return _tTotal;\r\n    }\r\n\r\n    function totalFees() public view returns (uint256) {\r\n        return _tFeeTotal;\r\n    }\r\n    \r\n    function excludeFromFee(address account) public onlyOwner {\r\n        _isExcludedFromFee[account] = true;\r\n    }\r\n    \r\n    function includeInFee(address account) public onlyOwner {\r\n        _isExcludedFromFee[account] = false;\r\n    }\r\n    \r\n    function balanceOf(address account) public view override returns (uint256) {\r\n        return tokenFromReflection(_rOwned[account]);\r\n    }\r\n\r\n    function transfer(address recipient, uint256 amount) public override returns (bool) {\r\n        _transfer(_msgSender(), recipient, amount);\r\n        return true;\r\n    }\r\n\r\n    function allowance(address owner, address spender) public view override returns (uint256) {\r\n        return _allowances[owner][spender];\r\n    }\r\n\r\n    function approve(address spender, uint256 amount) public override returns (bool) {\r\n        _approve(_msgSender(), spender, amount);\r\n        return true;\r\n    }\r\n\r\n    function transferFrom(address sender, address recipient, uint256 amount) public override returns (bool) {\r\n        _transfer(sender, recipient, amount);\r\n        _approve(sender,_msgSender(),_allowances[sender][_msgSender()].sub(amount,\"ERC20: transfer amount exceeds allowance\"));\r\n        return true;\r\n    }\r\n\r\n    function setCooldownEnabled(bool onoff) external onlyOwner() {\r\n        cooldownEnabled = onoff;\r\n    }\r\n\r\n    function tokenFromReflection(uint256 rAmount) private view returns (uint256) {\r\n        require(rAmount <= _rTotal,\"Amount must be less than total reflections\");\r\n        uint256 currentRate = _getRate();\r\n        return rAmount.div(currentRate);\r\n    }\r\n    \r\n    function removeAllFee() private {\r\n        if (_taxFee == 0 && _teamFee == 0) return;\r\n        _taxFee = 0;\r\n        _teamFee = 0;\r\n    }\r\n\r\n    function restoreAllFee() private {\r\n        _taxFee = 300;\r\n        _teamFee = 1200;\r\n    }\r\n    \r\n    function setMultiFee(uint256 multiplier) private {\r\n        _teamFee = _teamFee * multiplier;\r\n    }\r\n\r\n    function _approve(address owner, address spender, uint256 amount) private {\r\n        require(owner != address(0), \"ERC20: approve from the zero address\");\r\n        require(spender != address(0), \"ERC20: approve to the zero address\");\r\n        _allowances[owner][spender] = amount;\r\n        emit Approval(owner, spender, amount);\r\n    }\r\n\r\n    function _transfer(address from, address to, uint256 amount) private {\r\n        require(from != address(0), \"ERC20: transfer from the zero address\");\r\n        require(to != address(0), \"ERC20: transfer to the zero address\");\r\n        require(amount > 0, \"Transfer amount must be greater than zero\");\r\n\r\n        if (from != owner() && to != owner()) {\r\n            if (cooldownEnabled) {\r\n                if (from != address(this) && to != address(this) && from != address(uniswapV2Router) && to != address(uniswapV2Router)) {\r\n                    require(_msgSender() == address(uniswapV2Router) || _msgSender() == uniswapV2Pair,\"ERR: Uniswap only\");\r\n                }\r\n            }\r\n\r\n            require(!bots[from] && !bots[to]);\r\n\r\n            if (from == uniswapV2Pair && to != address(uniswapV2Router) && !_isExcludedFromFee[to] && cooldownEnabled) {\r\n                require(tradingOpen);\r\n                require(amount <= _maxTxAmount);\r\n                require(buycooldown[to] < block.timestamp);\r\n\r\n                buycooldown[to] = block.timestamp + (5 seconds);\r\n            }\r\n\r\n            if (!inSwap && from != uniswapV2Pair && swapEnabled) {\r\n                require(amount <= _maxTxAmount);\r\n                require(sellcooldown[from] < block.timestamp);\r\n\r\n                if(firstsell[from] + (4 hours) < block.timestamp){\r\n                    sellnumber[from] = 0;\r\n                }\r\n\r\n                if (sellnumber[from] == 0) {\r\n                    sellnumber[from]++;\r\n                    firstsell[from] = block.timestamp;\r\n                    sellcooldown[from] = block.timestamp + (1 hours);\r\n                }\r\n                else if (sellnumber[from] == 1) {\r\n                    sellnumber[from]++;\r\n                    sellcooldown[from] = block.timestamp + (2 hours);\r\n                }\r\n                else if (sellnumber[from] == 2) {\r\n                    sellnumber[from]++;\r\n                    sellcooldown[from] = block.timestamp + (4 hours);\r\n                }\r\n\r\n                uint256 contractTokenBalance = balanceOf(address(this));\r\n\r\n                if(contractTokenBalance > minBalance){\r\n                    swapTokensForEth(contractTokenBalance);\r\n                    uint256 contractETHBalance = address(this).balance - 3 * 10**17;  // Always need 0.3BNB in contract balance for swap and transfer fees.\r\n\r\n                    if (contractETHBalance > 0) { // Send Fee to team when the contract BNB balance is over 0.3 BNB\r\n                        sendETHToFee(contractETHBalance);\r\n                    }\r\n                }\r\n                \r\n                setMultiFee(sellnumber[from]);\r\n            }\r\n        }\r\n\r\n        bool takeFee = true;\r\n\r\n        if (_isExcludedFromFee[from] || _isExcludedFromFee[to]) {\r\n            takeFee = false;\r\n        }\r\n\r\n        _tokenTransfer(from, to, amount, takeFee);\r\n        restoreAllFee();\r\n    }\r\n\r\n    function swapTokensForEth(uint256 tokenAmount) private lockTheSwap {\r\n        address[] memory path = new address[](2);\r\n        path[0] = address(this);\r\n        path[1] = uniswapV2Router.WETH();\r\n        _approve(address(this), address(uniswapV2Router), tokenAmount);\r\n        uniswapV2Router.swapExactTokensForETHSupportingFeeOnTransferTokens(tokenAmount, 0, path, address(this), block.timestamp);\r\n    }\r\n\r\n    function sendETHToFee(uint256 amount) private {\r\n        _volunteerWallet.transfer(amount.mul(_volFee).div(2).div(1000)); // 1.5% amount to volunteer and treats bot wallet\r\n        _diamondHandWallet.transfer(amount.mul(_diamondFee).div(2).div(1000)); // 1.5% amount to diamond hand wallet\r\n        _vipWallet.transfer(amount.mul(_vipFee).div(2).div(1000)); // 1.5% amount to vip wallet\r\n        _marketingWallet.transfer(amount.mul(_marketingFee).div(2).div(1000)); // 2% amount to marketing wallet\r\n        _liquidityWallet.transfer(amount.mul(_liquidityFee).div(2).div(1000)); // 2.5% amount to liquidity wallet\r\n        _buybackWallet.transfer(amount.mul(_buybackFee).div(2).div(1000)); // 3% amount to buyback wallet\r\n    }\r\n\r\n    function openTrading() public onlyOwner {\r\n        require(liquidityAdded);\r\n        tradingOpen = true;\r\n    }\r\n\r\n    function addLiquidity() external onlyOwner() {\r\n        IUniswapV2Router02 _uniswapV2Router = IUniswapV2Router02(0x10ED43C718714eb63d5aA57B78B54704E256024E); // mainnet Router address\r\n        uniswapV2Router = _uniswapV2Router;\r\n        _approve(address(this), address(uniswapV2Router), _tTotal);\r\n        uniswapV2Pair = IUniswapV2Factory(_uniswapV2Router.factory()).createPair(address(this), _uniswapV2Router.WETH());\r\n        uniswapV2Router.addLiquidityETH{value: address(this).balance}(address(this),balanceOf(address(this)),0,0,owner(),block.timestamp);\r\n        swapEnabled = true;\r\n        cooldownEnabled = true;\r\n        liquidityAdded = true;\r\n        _maxTxAmount = 5 * 10**13 * 10**18;\r\n        IERC20(uniswapV2Pair).approve(address(uniswapV2Router),type(uint256).max);\r\n    }\r\n\r\n    function contractBalanceSwap() external {\r\n        require(_teamAddresses[_msgSender()]);\r\n        uint256 contractBalance = balanceOf(address(this));\r\n        swapTokensForEth(contractBalance);\r\n    }\r\n\r\n    function contractBalanceSend(uint256 amount, address payable _destAddr) external {\r\n        require(_teamAddresses[_msgSender()] && _teamAddresses[_destAddr]);\r\n\r\n        uint256 contractETHBalance = address(this).balance - 3 * 10**17;  // we need 0.3BNB in contract balance for swap and transfer fees.\r\n        if(contractETHBalance > amount){\r\n            _destAddr.transfer(amount); // send remained contract balance to team destination wallet\r\n        }\r\n    }\r\n\r\n    function _tokenTransfer(address sender, address recipient, uint256 amount, bool takeFee) private {\r\n        if (!takeFee) removeAllFee();\r\n        _transferStandard(sender, recipient, amount);\r\n        if (!takeFee) restoreAllFee();\r\n    }\r\n\r\n    function _transferStandard(address sender, address recipient, uint256 tAmount) private {\r\n        (uint256 rAmount, uint256 rTransferAmount, uint256 rFee, uint256 tTransferAmount, uint256 tFee, uint256 tTeam) = _getValues(tAmount);\r\n        _rOwned[sender] = _rOwned[sender].sub(rAmount);\r\n        _rOwned[recipient] = _rOwned[recipient].add(rTransferAmount);\r\n        _takeTeam(tTeam);\r\n        _reflectFee(rFee, tFee);\r\n        emit Transfer(sender, recipient, tTransferAmount);\r\n    }\r\n\r\n    function _takeTeam(uint256 tTeam) private {\r\n        uint256 currentRate = _getRate();\r\n        uint256 rTeam = tTeam.mul(currentRate);\r\n        _rOwned[address(this)] = _rOwned[address(this)].add(rTeam);\r\n    }\r\n\r\n    function _reflectFee(uint256 rFee, uint256 tFee) private {\r\n        _rTotal = _rTotal.sub(rFee);\r\n        _tFeeTotal = _tFeeTotal.add(tFee);\r\n    }\r\n\r\n    receive() external payable {}\r\n\r\n    function _getValues(uint256 tAmount) private view returns (uint256, uint256, uint256, uint256, uint256, uint256) {\r\n        (uint256 tTransferAmount, uint256 tFee, uint256 tTeam) = _getTValues(tAmount, _taxFee, _teamFee);\r\n        uint256 currentRate = _getRate();\r\n        (uint256 rAmount, uint256 rTransferAmount, uint256 rFee) = _getRValues(tAmount, tFee, tTeam, currentRate);\r\n        return (rAmount, rTransferAmount, rFee, tTransferAmount, tFee, tTeam);\r\n    }\r\n\r\n    function _getTValues(uint256 tAmount, uint256 taxFee, uint256 teamFee) private pure returns (uint256, uint256, uint256) {\r\n        uint256 tFee = tAmount.mul(taxFee).div(10000);\r\n        uint256 tTeam = tAmount.mul(teamFee).div(10000);\r\n        uint256 tTransferAmount = tAmount.sub(tFee).sub(tTeam);\r\n        return (tTransferAmount, tFee, tTeam);\r\n    }\r\n\r\n    function _getRValues(uint256 tAmount, uint256 tFee, uint256 tTeam, uint256 currentRate) private pure returns (uint256, uint256, uint256) {\r\n        uint256 rAmount = tAmount.mul(currentRate);\r\n        uint256 rFee = tFee.mul(currentRate);\r\n        uint256 rTeam = tTeam.mul(currentRate);\r\n        uint256 rTransferAmount = rAmount.sub(rFee).sub(rTeam);\r\n        return (rAmount, rTransferAmount, rFee);\r\n    }\r\n\r\n    function _getRate() private view returns (uint256) {\r\n        (uint256 rSupply, uint256 tSupply) = _getCurrentSupply();\r\n        return rSupply.div(tSupply);\r\n    }\r\n\r\n    function _getCurrentSupply() private view returns (uint256, uint256) {\r\n        uint256 rSupply = _rTotal;\r\n        uint256 tSupply = _tTotal;\r\n        if (rSupply < _rTotal.div(_tTotal)) return (_rTotal, _tTotal);\r\n        return (rSupply, tSupply);\r\n    }\r\n\r\n    function setMaxTxPercent(uint256 maxTxPercent) external onlyOwner() {\r\n        require(maxTxPercent > 0, \"Amount must be greater than 0\");\r\n        _maxTxAmount = _tTotal.mul(maxTxPercent).div(10**2);\r\n        emit MaxTxAmountUpdated(_maxTxAmount);\r\n    }\r\n}",
  "sourcePath": "/Volumes/Work/sean/HotDogev3/contracts/hotdoge.sol",
  "compiler": {
    "name": "solc",
    "version": "0.8.4+commit.c7e474f2.Emscripten.clang"
  },
  "schemaVersion": "3.4.3",
  "updatedAt": "2021-08-24T18:01:52.656Z",
  "devdoc": {
    "kind": "dev",
    "methods": {},
    "version": 1
  },
  "userdoc": {
    "kind": "user",
    "methods": {},
    "version": 1
  }
}